{
  "transactions": [
    {
      "hash": "0x4b5df27cc2574373257262d7875f09e75ec08e86226915871c33464769c7b03e",
      "transactionType": "CALL",
      "contractName": null,
      "contractAddress": "0x48ac463d7975828989331f4de43341627b9c5f1d",
      "function": "requestAttestation(bytes)",
      "arguments": [
        "0x494a736f6e41706900000000000000000000000000000000000000000000000057454232000000000000000000000000000000000000000000000000000000004b674b633654c833a3936f17ab749512475395f158af57c4e1262d8930fe17cb0000000000000000000000000000000000000000000000000000000000000020000000000000000000000000000000000000000000000000000000000000006000000000000000000000000000000000000000000000000000000000000000e00000000000000000000000000000000000000000000000000000000000000180000000000000000000000000000000000000000000000000000000000000004d68747470733a2f2f6170692e63686573732e636f6d2f7075622f746f75726e616d656e742f2d333372642d6368657373636f6d2d717569636b2d6b6e6f636b6f7574732d313430312d313630300000000000000000000000000000000000000000000000000000000000000000000000000000000000000000000000000000717b75726c3a202e75726c2c2063726561746f723a202e63726561746f722c207374617475733a202e7374617475732c2077696e6e65723a20285b2e706c61796572735b5d207c2073656c656374282e737461747573203d3d202261637469766522295d5b305d2e757365726e616d65297d000000000000000000000000000000000000000000000000000000000000000000000000000000000000000000012a7b22636f6d706f6e656e7473223a205b7b22696e7465726e616c54797065223a2022737472696e67222c20226e616d65223a202275726c222c202274797065223a2022737472696e67227d2c7b22696e7465726e616c54797065223a2022737472696e67222c20226e616d65223a202263726561746f72222c202274797065223a2022737472696e67227d2c7b22696e7465726e616c54797065223a2022737472696e67222c20226e616d65223a2022737461747573222c202274797065223a2022737472696e67227d2c7b22696e7465726e616c54797065223a2022737472696e67222c20226e616d65223a202277696e6e6572222c202274797065223a2022737472696e67227d5d2c226e616d65223a20227461736b222c2274797065223a20227475706c65227d00000000000000000000000000000000000000000000"
      ],
      "transaction": {
        "from": "0x3f6bdd26f2ae4e77acdfa1fa24b2774ed93984b4",
        "to": "0x48ac463d7975828989331f4de43341627b9c5f1d",
        "gas": "0x20c0c",
        "value": "0x3e8",
        "input": "0x6238f35400000000000000000000000000000000000000000000000000000000000000200000000000000000000000000000000000000000000000000000000000000360494a736f6e41706900000000000000000000000000000000000000000000000057454232000000000000000000000000000000000000000000000000000000004b674b633654c833a3936f17ab749512475395f158af57c4e1262d8930fe17cb0000000000000000000000000000000000000000000000000000000000000020000000000000000000000000000000000000000000000000000000000000006000000000000000000000000000000000000000000000000000000000000000e00000000000000000000000000000000000000000000000000000000000000180000000000000000000000000000000000000000000000000000000000000004d68747470733a2f2f6170692e63686573732e636f6d2f7075622f746f75726e616d656e742f2d333372642d6368657373636f6d2d717569636b2d6b6e6f636b6f7574732d313430312d313630300000000000000000000000000000000000000000000000000000000000000000000000000000000000000000000000000000717b75726c3a202e75726c2c2063726561746f723a202e63726561746f722c207374617475733a202e7374617475732c2077696e6e65723a20285b2e706c61796572735b5d207c2073656c656374282e737461747573203d3d202261637469766522295d5b305d2e757365726e616d65297d000000000000000000000000000000000000000000000000000000000000000000000000000000000000000000012a7b22636f6d706f6e656e7473223a205b7b22696e7465726e616c54797065223a2022737472696e67222c20226e616d65223a202275726c222c202274797065223a2022737472696e67227d2c7b22696e7465726e616c54797065223a2022737472696e67222c20226e616d65223a202263726561746f72222c202274797065223a2022737472696e67227d2c7b22696e7465726e616c54797065223a2022737472696e67222c20226e616d65223a2022737461747573222c202274797065223a2022737472696e67227d2c7b22696e7465726e616c54797065223a2022737472696e67222c20226e616d65223a202277696e6e6572222c202274797065223a2022737472696e67227d5d2c226e616d65223a20227461736b222c2274797065223a20227475706c65227d00000000000000000000000000000000000000000000",
        "nonce": "0x4",
        "chainId": "0x72"
      },
      "additionalContracts": [],
      "isFixedGasLimit": false
    }
  ],
  "receipts": [
    {
      "status": "0x1",
      "cumulativeGasUsed": "0x17b67",
      "logs": [
        {
          "address": "0x48ac463d7975828989331f4de43341627b9c5f1d",
          "topics": [
            "0x251377668af6553101c9bb094ba89c0c536783e005e203625e6cd57345918cc9"
          ],
          "data": "0x000000000000000000000000000000000000000000000000000000000000004000000000000000000000000000000000000000000000000000000000000003e80000000000000000000000000000000000000000000000000000000000000360494a736f6e41706900000000000000000000000000000000000000000000000057454232000000000000000000000000000000000000000000000000000000004b674b633654c833a3936f17ab749512475395f158af57c4e1262d8930fe17cb0000000000000000000000000000000000000000000000000000000000000020000000000000000000000000000000000000000000000000000000000000006000000000000000000000000000000000000000000000000000000000000000e00000000000000000000000000000000000000000000000000000000000000180000000000000000000000000000000000000000000000000000000000000004d68747470733a2f2f6170692e63686573732e636f6d2f7075622f746f75726e616d656e742f2d333372642d6368657373636f6d2d717569636b2d6b6e6f636b6f7574732d313430312d313630300000000000000000000000000000000000000000000000000000000000000000000000000000000000000000000000000000717b75726c3a202e75726c2c2063726561746f723a202e63726561746f722c207374617475733a202e7374617475732c2077696e6e65723a20285b2e706c61796572735b5d207c2073656c656374282e737461747573203d3d202261637469766522295d5b305d2e757365726e616d65297d000000000000000000000000000000000000000000000000000000000000000000000000000000000000000000012a7b22636f6d706f6e656e7473223a205b7b22696e7465726e616c54797065223a2022737472696e67222c20226e616d65223a202275726c222c202274797065223a2022737472696e67227d2c7b22696e7465726e616c54797065223a2022737472696e67222c20226e616d65223a202263726561746f72222c202274797065223a2022737472696e67227d2c7b22696e7465726e616c54797065223a2022737472696e67222c20226e616d65223a2022737461747573222c202274797065223a2022737472696e67227d2c7b22696e7465726e616c54797065223a2022737472696e67222c20226e616d65223a202277696e6e6572222c202274797065223a2022737472696e67227d5d2c226e616d65223a20227461736b222c2274797065223a20227475706c65227d00000000000000000000000000000000000000000000",
          "blockHash": "0xa647a00d9896350c8b948f5f7f22c344550834a607ce2a3820885de5620c4daf",
          "blockNumber": "0xfce1dd",
          "transactionHash": "0x4b5df27cc2574373257262d7875f09e75ec08e86226915871c33464769c7b03e",
          "transactionIndex": "0x0",
          "logIndex": "0x0",
          "removed": false
        },
        {
          "address": "0x1000000000000000000000000000000000000002",
          "topics": [
            "0xe7aa66356adbd5e839ef210626f6d8f6f72109c17fadf4c4f9ca82b315ae79b4"
          ],
          "data": "0x000000000000000000000000c738fdcde9cd2fbd72618d36ed71008b8d001ba4000000000000000000000000000000000000000000000000000000000000421a",
          "blockHash": "0xa647a00d9896350c8b948f5f7f22c344550834a607ce2a3820885de5620c4daf",
          "blockNumber": "0xfce1dd",
          "transactionHash": "0x4b5df27cc2574373257262d7875f09e75ec08e86226915871c33464769c7b03e",
          "transactionIndex": "0x0",
          "logIndex": "0x1",
          "removed": false
        },
        {
          "address": "0x1000000000000000000000000000000000000002",
          "topics": [
            "0xe7aa66356adbd5e839ef210626f6d8f6f72109c17fadf4c4f9ca82b315ae79b4"
          ],
          "data": "0x000000000000000000000000d2a1bb23eb350814a30dd6f9de78bb2c8fdd9f1d0000000000000000000000000000000000000000000000000000000000003b68",
          "blockHash": "0xa647a00d9896350c8b948f5f7f22c344550834a607ce2a3820885de5620c4daf",
          "blockNumber": "0xfce1dd",
          "transactionHash": "0x4b5df27cc2574373257262d7875f09e75ec08e86226915871c33464769c7b03e",
          "transactionIndex": "0x0",
          "logIndex": "0x2",
          "removed": false
        },
        {
          "address": "0x1000000000000000000000000000000000000002",
          "topics": [
            "0xe7aa66356adbd5e839ef210626f6d8f6f72109c17fadf4c4f9ca82b315ae79b4"
          ],
          "data": "0x0000000000000000000000006892bdbbb14e1c9bd46bf31e7bac94d038fc82a6000000000000000000000000000000000000000000000000000000000000422d",
          "blockHash": "0xa647a00d9896350c8b948f5f7f22c344550834a607ce2a3820885de5620c4daf",
          "blockNumber": "0xfce1dd",
          "transactionHash": "0x4b5df27cc2574373257262d7875f09e75ec08e86226915871c33464769c7b03e",
          "transactionIndex": "0x0",
          "logIndex": "0x3",
          "removed": false
        },
        {
          "address": "0x1000000000000000000000000000000000000002",
          "topics": [
            "0xe7aa66356adbd5e839ef210626f6d8f6f72109c17fadf4c4f9ca82b315ae79b4"
          ],
          "data": "0x000000000000000000000000bd33bdff04c357f7fc019e72d0504c24cf4aa0100000000000000000000000000000000000000000000000000000000000008f11",
          "blockHash": "0xa647a00d9896350c8b948f5f7f22c344550834a607ce2a3820885de5620c4daf",
          "blockNumber": "0xfce1dd",
          "transactionHash": "0x4b5df27cc2574373257262d7875f09e75ec08e86226915871c33464769c7b03e",
          "transactionIndex": "0x0",
          "logIndex": "0x4",
          "removed": false
        },
        {
          "address": "0x1000000000000000000000000000000000000002",
          "topics": [
            "0xe7aa66356adbd5e839ef210626f6d8f6f72109c17fadf4c4f9ca82b315ae79b4"
          ],
          "data": "0x000000000000000000000000a90db6d10f856799b10ef2a77ebcbf460ac71e52000000000000000000000000000000000000000000000000000000000000135f",
          "blockHash": "0xa647a00d9896350c8b948f5f7f22c344550834a607ce2a3820885de5620c4daf",
          "blockNumber": "0xfce1dd",
          "transactionHash": "0x4b5df27cc2574373257262d7875f09e75ec08e86226915871c33464769c7b03e",
          "transactionIndex": "0x0",
          "logIndex": "0x5",
          "removed": false
        },
        {
          "address": "0x1000000000000000000000000000000000000002",
          "topics": [
            "0xe7aa66356adbd5e839ef210626f6d8f6f72109c17fadf4c4f9ca82b315ae79b4"
          ],
          "data": "0x0000000000000000000000000b162ca3acf3482d3357972e12d794434085d8390000000000000000000000000000000000000000000000000000000000012263",
          "blockHash": "0xa647a00d9896350c8b948f5f7f22c344550834a607ce2a3820885de5620c4daf",
          "blockNumber": "0xfce1dd",
          "transactionHash": "0x4b5df27cc2574373257262d7875f09e75ec08e86226915871c33464769c7b03e",
          "transactionIndex": "0x0",
          "logIndex": "0x6",
          "removed": false
        }
      ],
      "logsBloom": "0x00020000000000000000000000000000000000000000000000000000000000000000000000000000000000000000000000000000000000000000000000000004000000000004000000400000000000000000000000000000000080000000000000000000000000000000000000000000000000000100000001000000000000000000000000000000008000000000000000000000000000000000000400000000080000020000000000000000000000000000000000000000000000000000000000002000000000000000000000000000000000000000000000000000000000000000000000000000000000000000000000000000000000000000000000000000",
      "type": "0x2",
      "transactionHash": "0x4b5df27cc2574373257262d7875f09e75ec08e86226915871c33464769c7b03e",
      "transactionIndex": "0x0",
      "blockHash": "0xa647a00d9896350c8b948f5f7f22c344550834a607ce2a3820885de5620c4daf",
      "blockNumber": "0xfce1dd",
      "gasUsed": "0x17b67",
      "effectiveGasPrice": "0xa7a358200",
      "from": "0x3f6bdd26f2ae4e77acdfa1fa24b2774ed93984b4",
      "to": "0x48ac463d7975828989331f4de43341627b9c5f1d",
      "contractAddress": null
    }
  ],
  "libraries": [],
  "pending": [],
  "returns": {},
  "timestamp": 1743908660,
  "chain": 114,
  "commit": "e131532"
}